:100000000C94AC010C94F3010C94F3010C94F301E7
:100010000C94F3010C94F3010C94F3010C94F30190
:100020000C94F3010C94F3010C94A01B0C94731C1E
:100030000C94BC120C94F3010C94F3010C94F30196
:100040000C94F3010C94F3010C94F3010C94F30160
:100050000C94F3010C941D130C94F3010C94F30114
:100060000C94F3010C94F3010C94F3010C94F30140
:100070000C94F3010C94F3010C94F3010C94F30130
:100080000C94F3010C94F3010C94F3010C94F30120
:100090000C94F3010C94F3010C94F3010C94F30110
:1000A0000C94F3010C94F3010C94F3011E001F0057
:1000B000200021002200230024002500010001006F
:1000C0000100010001000100010001000100010028
:1000D0000100010001000100010001000100010018
:1000E0000100010001000100010001000100010008
:1000F00001000100010001000100010001000100F8
:1001000001000100010001000100010001000100E7
:1001100001000100010001000100010001000100D7
:1001200001000100010001000100010001000100C7
:1001300001000100010001000100010001000100B7
:1001400001000100010001000100010001000100A7
:100150000100010001000100010001000100010097
:100160000100010001000100010001000100010087
:100170000100010001000100010001000100010077
:100180000100010001000100010001000100010067
:100190000100010001000100010001000100010057
:1001A00001000100010001000100010012036B00C9
:1001B0006500790062006F00610072006400000059
:1001C000160371006D006B006200750069006C0021
:1001D00064006500720000000403090409026D0058
:1001E000040100A0FA090400000103010100092133
:1001F000110100012240000705810308000A0904DB
:1002000001000103010200092111010001224D003A
:100210000705820308000A09040200010300000028
:100220000921110100012236000705830308000A95
:10023000090403000103000000092111010001224B
:10024000390007058403200001120110010000009D
:1002500008EDFE606001000102000105010906A130
:1002600001050719E029E7150025019508750181A9
:100270000205081901290595057501910295017579
:100280000391010507190029F71500250195F87557
:10029000018102C005010980A10185021601002625
:1002A00003001A81002A8300751095018100C005A2
:1002B0000C0901A1018503160100269C021A010008
:1002C0002A9C02751095018100C005010902A10157
:1002D0000901A10005091901290515002501950548
:1002E000750181029501750381010501093009310C
:1002F0001581257F95027508810609381581257FAE
:10030000950175088106050C0A38021581257F952F
:100310000175088106C0C005010906A1010507197C
:10032000E029E71500250195087501810295017501
:1003300008810105081901290595057501910295A6
:1003400001750391010507190029FF150026FF001B
:10035000950675088100C00011241FBECFEFDAE0BA
:10036000DEBFCDBF04B603FE27C08091FA01909195
:10037000FB01A091FC01B091FD018730904BA7409B
:10038000B04BD1F41092FA011092FB011092FC01D3
:100390001092FD0114BE84B7877F84BF0FB6F89416
:1003A000A895809160008861809360001092600041
:1003B0000FBEE0E0F8E3099511E0A0E0B1E0E0EC69
:1003C000FFE302C005900D92A033B107D9F721E0F9
:1003D000A0E3B1E001C01D92AA3FB207E1F70E947D
:1003E000F6180C94B21F0C94000090E080E0089581
:1003F0000895089581E00895089581E008950C948A
:10040000FA010E94140B2FEF84E39CE021508040FE
:100410009040E1F700C000000C944013EF92FF926F
:100420000F931F93CF93DF938C01FC01E080F18049
:1004300080914F01811140C082818823C1F1C701A1
:100440000E949810C82F682FC7010E944210B70160
:100450008C2F0E944603EC01B8010E94FF01882303
:1004600009F44BC0B801CE010E944E05882309F45F
:1004700044C0C531F0E7DF0720F5C23080E7D80778
:1004800008F04DC0C115E0E7DE0791F1C130D0475B
:10049000E1F181E08093320180933301C801DF9163
:1004A000CF911F910F91FF90EF900C94FD01C70128
:1004B0000E946F10C82FCBCFC7010E949810B701C0
:1004C000C8CFCC3380E7D80709F49BC0CD33D047E1
:1004D00001F7F8018281882309F4BAC01092330130
:1004E0000E94EC12909331018093300180E296C01B
:1004F000F801828181110E94010280E0DF91CF9199
:100500001F910F91FF90EF900895F8018281882349
:10051000A1F38091BA0181608093BA01EECFF80116
:100520008281882309F4BACF0E945312811102C03C
:100530000E9439120E94701290E09093EC01809317
:10054000EB01FE01E350F0478091EB018160E23165
:10055000F10538F4EC54F04E0C94621F8091EB01DD
:1005600082608093EB018091EB010E9474120E94E3
:10057000140BC3CF8091EB018460F3CF8091EB012A
:100580008860EFCF8091EB018061EBCF8091EB0130
:100590008062E7CF8091EB018064E3CF8091EB0133
:1005A0008068DFCF8091EB018C60DBCF8091EB0125
:1005B0008E7FD7CF8091EB018D7FD3CF8091EB01E0
:1005C0008B7FCFCF8091EB01877FCBCF8091EB01E9
:1005D0008F7EC7CF8091EB018F7DC3CF8091EB01E0
:1005E0008F7BBFCF8091EB018F77BBCF8091EB01E9
:1005F000837FB7CF9091EB01892F97FB87F98058C4
:10060000B0CFF8018281882361F0109232010E94FC
:10061000EC12909331018093300182E00E947908BE
:100620006CCF8091320181110FC080913001909187
:1006300031010E94F812883C910530F486E20E9454
:100640004E0786E20E942A0882E00E94800855CF69
:100650008091330181110FC080913001909131015F
:100660000E94F812883C910530F487E20E944E0700
:1006700087E20E942A0880E2E8CF0C949D050C9442
:100680009F050C94FC010C9441030895272F280F1B
:100690003327331FF90183E0EE0FFF1F8A95E1F73F
:1006A000E60FF11DEE0FFF1FE455FF4F859194916A
:1006B0000895FC01EE0FFF1FE455FE4F85919491C4
:1006C00008950E9446030E94D2049C01811540E4D3
:1006D000940708F097C0211580E3380708F0FAC0A6
:1006E000203E310508F074C0203C310508F0E5C01B
:1006F000283A310588F4253A310508F0E2C0213066
:10070000310509F477C0C9010497813A910508F4CD
:1007100071C030E020E06EC0C901885A9109459748
:10072000C0F7283A310509F4FEC0293A310509F429
:10073000FDC02A3A310509F4FCC02B3A310509F411
:10074000FBC02C3A310509F4FAC02B3B310509F402
:10075000F9C02C3B310509F4F8C02D3A310509F4F4
:10076000F7C0203B310509F4F6C02E3A310509F4F3
:10077000F5C02F3A310509F4F4C0213B310509F4E5
:10078000F3C0223B310509F4F2C0233B310509F4E3
:10079000F1C0243B310509F4F0C0253B310509F4D3
:1007A000EFC0263B310509F4EEC0273B310509F4C3
:1007B000EDC0283B310509F4ECC0293B310509F4B3
:1007C000EBC02A3B310509F4EAC020E034E412C052
:1007D000211590E2390780F42F3F310509F050F4DC
:1007E000283E310538F0C901805F91093065409796
:1007F00008F08FCFC9010895C9019F700E94590365
:100800009C01F8CF8115944508F041C0211583E57E
:10081000380708F06AC0211592E5390738F5211527
:1008200041E5340708F05CC0211580E5380708F47D
:1008300054C0C90134E0969587953A95E1F78370E5
:10084000422F46954695437090E2499FA00111249E
:10085000582B822F837021E030E002C0220F331F1B
:100860008A95E2F7242B352B3C68C4CFC9018370ED
:10087000992741E050E002C0440F551F8A95E2F7E6
:100880002695269580E2289F90011124EBCF211513
:1008900096E5390748F4922F882721153545C8F584
:1008A0009C01246F306AA6CFC90190563F70811514
:1008B000904108F02ECF30629DCFC901805C910934
:1008C0009DCF253A310549F1263A310549F522E80F
:1008D00030E490CF3327306C8DCF3F70306A8ACFB1
:1008E000322F2227216F306A85CFC9018370992763
:1008F00041E050E002C0440F551F8A95E2F726956B
:10090000269580E2289F90011124242B352B3A68EC
:1009100071CF88279F719C01CECF21E830E46ACF48
:1009200023E830E467CF22EE34E464CF29EE34E4E8
:1009300061CF2AEE34E45ECF25EB34E45BCF26EBC7
:1009400034E458CF23EB34E455CF24EB34E452CFD6
:1009500027EB34E44FCF2CEC34E44CCF2DEC34E4D3
:1009600049CF23E835E446CF2AE835E443CF22E9EE
:1009700035E440CF24E935E43DCF21E236E43ACFF7
:1009800023E236E437CF24E236E434CF25E236E4FE
:1009900031CF26E236E42ECF27E236E42BCF2AE20F
:1009A00036E428CF803E910581F1C8F4813391056A
:1009B00009F462C048F48932910509F456C08A32BC
:1009C000910509F460C0089589339105B9F0823822
:1009D0009105A1F08533910509F440C00895863E44
:1009E000910561F138F4823E9105B1F0833E9105A5
:1009F000E1F00895873E910551F108952091EB01B2
:100A00002370D9F080EE90E008952091EB0120FF53
:100A100014C089E390E008952091EB0122FF0DC0FE
:100A200024FD09C083EE90E008952091EB0122FDA2
:100A300031C024FF02C090E080E008952091EB01D6
:100A400023FFFBCF24FDF7CF87EE90E008952091A0
:100A5000EB0123FFEECF86EE90E008952091EB01AD
:100A600025FFEBCF89E290E008952091EB0125FF6F
:100A7000E4CF85E390E008952091EB0126FFDDCFE0
:100A80008AE290E008952091EB0126FFD6CF81E322
:100A900090E0089582EE90E0089508950F931F93DB
:100AA000CF938C01FB018281811106C0C1E08C2FA4
:100AB000CF911F910F910895C0914101C11125C09F
:100AC0000531104799F70E944D0581E0809341015F
:100AD0000E94EC129093400180933F0110923401E8
:100AE00010923601109235011092380110923701A0
:100AF00010923A011092390110923C0110923B0180
:100B000010923E0110923D01D2CF80913F01909111
:100B100040010E94F812883C910540F68091340112
:100B2000E82FF0E0EE0FFF1FEB5CFE4F1183008318
:100B30008F5F80933401C0E0BACF0C94F8010C941D
:100B4000F901CF93DF9385B7806885BF85B780684B
:100B500085BFA3E1B1E04BE151E0C1E0D0E08D9170
:100B6000E82FE295EF70F0E061A18F709E0101C067
:100B7000220F8A95EAF7922F9095962391A382A14E
:100B8000822B82A34A175B0751F753985B9A109206
:100B9000430110924201DF91CF910C943D03DF920B
:100BA000EF92FF920F931F93CF93DF9303E111E036
:100BB000D0E0C0E0EE24E394F12CDD24D394F801DE
:100BC00081918F01E82FE295EF70F0E091A18F7095
:100BD000A70101C0440F8A95EAF7892F842B81A3CE
:100BE00092A1342F3095932392A360EA6A95F1F78E
:100BF00020914201C7010C2E01C0880F0A94EAF728
:100C00004B9936C0822B809342019091420181A181
:100C1000832381A382A1842B82A3291741F0D09240
:100C200044010E94EC129093460180934501219665
:100C3000C830D10521F680914401882371F080915C
:100C40004501909146010E94F812069730F080917C
:100C5000420180934301109244010E943F0381E0CE
:100C6000DF91CF911F910F91FF90EF90DF9008954A
:100C700080958223C8CFE82FF0E0ED5BFE4F8081A6
:100C80000895089590934C0180934B010895E0914D
:100C90004B01F0914C01309721F00190F081E02D53
:100CA000099480E00895E0914B01F0914C01309758
:100CB00021F00280F381E02D09940895E0914B0129
:100CC000F0914C01309721F00480F581E02D0994DA
:100CD00008952091490130914A012817390771F090
:100CE00090934A0180934901E0914B01F0914C01AE
:100CF000309721F00680F781E02D09940895209126
:100D00004701309148012817390771F09093480145
:100D100080934701E0914B01F0914C01309721F015
:100D20000084F185E02D0994089508950C949506AA
:100D30000E94E3120E94A1050C949E13EF92FF9271
:100D40001F93CF93DF9300D000D00F92CDB7DEB7C3
:100D50000E94CF0580E00E943B06182F80914E0133
:100D6000F82EF126811709F454C08091BA0181FD53
:100D70000E94410690E080E02F2D30E0482FB9011D
:100D8000082E02C0759567950A94E2F760FF3CC093
:100D900089831A8281E090E07C0102C0EE0CFF1C86
:100DA0004A95E2F7812F90E08E219F2121E0892B47
:100DB00009F420E02B830E94EC128160782F9D8340
:100DC0008C8349815A816B818D810E942507809196
:100DD0004E01E826E0924E010E944B160E94470603
:100DE00090914D01891731F10E94470680934D0182
:100DF0000F900F900F900F900F90DF91CF911F9158
:100E0000FF90EF900C94430301968830910509F010
:100E1000B5CF8FEF89838A831B820E94EC12816099
:100E2000782F9D838C8349815A816B818D810E94AB
:100E30002507D2CF0F900F900F900F900F90DF915A
:100E4000CF911F91FF90EF900895CF93DF93CDB78F
:100E5000DEB72B970FB6F894DEBF0FBECDBF4F8322
:100E6000588769877A878B871E8285E0FE013796CF
:100E7000DE01119601900D928A95E1F749815A8120
:100E80006B817C818D819E812B960FB6F894DEBF9D
:100E90000FBECDBFDF91CF910C949C0D882309F438
:100EA000D8C0823871F40E94470681FDD2C089E320
:100EB0000E9440110E940A1289E30E947D110C9445
:100EC0000A12833859F40E94470680FDC2C083E5A8
:100ED0000E9440110E940A1283E5EFCF843859F432
:100EE0000E94470682FDB5C087E40E9440110E941F
:100EF0000A1287E4E2CF9CEF980F913A18F40E940F
:100F00004011DDCF90E2980F983050F4877091E057
:100F100001C0990F8A95EAF7892F0E94C111CFCF9E
:100F20009BE5980F933070F4853A31F0863A39F0AA
:100F300083E890E00C94690681E890E0FBCF82E8BA
:100F400090E0F8CF98E5980F953108F082C0883A84
:100F500009F440C0893A09F440C08A3A09F440C013
:100F60008B3A09F440C08C3A09F440C08B3B09F439
:100F700040C08C3B09F440C08D3A09F440C0803B2E
:100F800009F440C08E3A09F440C08F3A09F440C0D9
:100F9000813B09F440C0823B09F440C0833B09F423
:100FA00040C0843B09F440C0853B09F440C0863B07
:100FB00009F440C0873B09F440C0883B09F440C0B5
:100FC000893B09F440C08A3B09F440C090E080E0CE
:100FD0000C947F0682EE90E0FBCF89EE90E0F8CF94
:100FE0008AEE90E0F5CF85EB90E0F2CF86EB90E0D3
:100FF000EFCF83EB90E0ECCF84EB90E0E9CF87EB91
:1010000090E0E6CF8CEC90E0E3CF8DEC90E0E0CF89
:1010100083E891E0DDCF8AE891E0DACF82E991E0E0
:10102000D7CF84E991E0D4CF81E292E0D1CF83E2BF
:1010300092E0CECF84E292E0CBCF85E292E0C8CFBF
:1010400086E292E0C5CF87E292E0C2CF8AE292E0E8
:10105000BFCF0895882309F44BC0823871F40E94F1
:10106000470681FF45C089E30E9440110E940A1291
:1010700089E30E947D110C940A12833859F40E946E
:10108000470680FF35C083E50E9440110E940A1286
:1010900083E5EFCF843859F40E94470682FF28C0C9
:1010A00087E40E9440110E940A1287E4E2CF9CEF7D
:1010B000980F913AF0F290E2980F983050F48770C0
:1010C00091E001C0990F8A95EAF7892F0E94C71114
:1010D000D2CF9BE5980F933020F490E080E00C9401
:1010E0006906885A853120F490E080E00C947F06F0
:1010F0000895882321F00E94C1110C940A120895CA
:10110000882321F00E94C7110C940A1208958F922F
:101110009F92AF92BF92DF92EF92FF920F931F9335
:10112000CF93DF9300D000D00F92CDB7DEB77C0114
:101130006D837983FC01058102950F701281111175
:101140000E94E0110E943911D82E882371F01123DA
:10115000A1F08D81805E883080F082E00E942311B2
:101160000E94391191E0D82ED926E981E295EF70DD
:10117000F0E0EA53F04E0C94621FD12CF6CF0981B7
:101180000F70F981F07F11F00295007F1123B1F00B
:10119000002361F08D81805E883018F02D8121114F
:1011A00009C0802F0E94C1110E940A128D810E94E5
:1011B0004E0715C0802F0E94D211F6CF8D810E945C
:1011C0002A08002361F08D81805E883018F03D810F
:1011D000311129C0802F0E94C7110E940A12DD2000
:1011E00009F4D3C10E94161180FDCFC1F70112820C
:1011F0000E9410110E945A0FC7010E94D60A0E9435
:1012000010110F900F900F900F900F90DF91CF91D2
:101210001F910F91FF90EF90DF90BF90AF909F9044
:101220008F900C947C0F802F0E94D811D6CF4981CB
:101230004F70B42E5981507F503219F0B29480EF24
:10124000B8228D81882369F0813029F1112369F159
:10125000002359F0F701858180FFA8CF8F70858327
:1012600004C0112361F0011104C08B2D0E94790884
:10127000B6CF8B2D0130D1F70E94F411B0CF011100
:1012800006C00E94F7118B2D0E948008A8CF013064
:1012900009F4A5CFF6CF112321F0063008F09FCF37
:1012A000E4CF053008F09BCFEECF002361F38D81B2
:1012B0000E942A0894CF898186958695837069F06B
:1012C000813009F08CCF8D8199819370111102C00A
:1012D00090E080E00E947F0682CF8D81998193709B
:1012E000111102C090E080E00E94690678CF8D81E4
:1012F000112329F00E9459150E94401670CF0E94B8
:10130000C115FACF8981837009F05FC0111167CFD1
:101310002D81229526952770220F220F8D818F70A7
:1013200090E0B0E0A0E04C015D01022E04C0880C0A
:10133000991CAA1CBB1C0A94D2F7FD8160E070E0E6
:10134000CB01F4FF0FC06FE070E080E090E004C0DC
:10135000660F771F881F991F2A95D2F760957095A1
:101360008095909529812695269523702D8322308E
:10137000B1F0233019F19B01AC01282939294A2900
:101380005B2929833A834B835C833D8169817A8120
:101390008B819C813130B1F00E94E70E20CF9B0100
:1013A000AC01282939294A295B2929833A834B83AF
:1013B0005C83CA01B9010E94110F11CF0E94E70E90
:1013C000C501B4010E94BD0E0ACF8695112311F00C
:1013D00089818170882309F402CF2D812295269579
:1013E0002770220F220F8D818F7090E0B0E0A0E077
:1013F0004C015D01022E04C0880C991CAA1CBB1C68
:101400000A94D2F73D8160E070E0CB0134FF0FC059
:101410006FE070E080E090E004C0660F771F881FE7
:10142000991F2A95D2F7609570958095909549817E
:101430004695469543704D834230B1F0433019F1E3
:101440009B01AC01282939294A295B2929833A8340
:101450004B835C833D8169817A818B819C813130B2
:10146000B1F00E94ED0FBBCE9B01AC0128293929B8
:101470004A295B2929833A834B835C83CA01B901DA
:101480000E941710ACCE0E94ED0FC501B4010E945E
:10149000C30FA5CE3D81323F09F447C080F4303FF1
:1014A00079F1313FD9F1832F805E8031D0F0112363
:1014B00009F456C001117ACE89818F7133C04D81F4
:1014C000433FD1F1443F99F7112309F43FC089818B
:1014D0008F7189830E945A0F63E089810E941A11DB
:1014E0007ECE5D815F705D8389818F71112321F0D4
:1014F0000E945A0F8D81BACE0E947C0F8D81C4CE7E
:10150000112341F0053008F06ACE89818F710E9465
:10151000A10F65CE063008F062CEF7CF89818F71BA
:10152000112339F00E945A0F5ACE89818F711123ED
:10153000C9F30E947C0F53CE112329F089818F714A
:101540000E94450F4CCE0E943B0F49CE81E00E9485
:101550002311023008F443CE82E00E9423113FCED3
:101560000111A5CE89818F71E4CF49814F706D81C2
:10157000C7010E94F5010E94360E31CE49814F709D
:101580006D81C7010E9445032ACE0F900F900F90E6
:101590000F900F90DF91CF911F910F91FF90EF90DF
:1015A000DF90BF90AF909F908F9008950F931F93FF
:1015B000CF93DF93EC018B819C81892B29F088816B
:1015C000998189238F3F29F4DF91CF911F910F914A
:1015D0000895CE010E940E028823B1F368817981BB
:1015E0008A810E94E6108C010E9441100E94B20E76
:1015F000B801CE01DF91CF911F910F910C94870814
:101600000E94E0110E94F1110E94B3110E940A127F
:101610000E9431170E94401690E080E00E94690607
:1016200090E080E00C947F060E94CF110C94000B98
:101630000E94DA10282F892F82958F70903C80F4B9
:101640008A30B0F4843020F4823090F480E0089541
:101650008630E1F781E0203E88F0213FB9F70EC0E7
:101660008C3011F08F3091F793FB882780F9089523
:1016700081E0203F39F018F4203E40F70895243FE0
:1016800029F7FCCF0895CF93DF9300D000D00F92BD
:10169000CDB7DEB70F900F900F900F900F90DF91A6
:1016A000CF910895CF93DF9300D000D000D0CDB775
:1016B000DEB726960FB6F894DEBF0FBECDBFDF9122
:1016C000CF9108951F93CF93DF93E091500116E0DF
:1016D000809151018E1304C0DF91CF911F91089525
:1016E000CE2FD0E01E9FF0011124EE5AFE4F408114
:1016F000518162817381848195810E94520BFE0128
:101700003196E770E5CF409182015091830160915D
:1017100084017091850180918601909187010C94DC
:10172000520B1F93CF93DF9380918701807FC1F489
:10173000809184018823A1F080915001C0915101D2
:1017400060918201709183014091850150918601E1
:10175000D62FD723DA01A095B09516E0C81304C0A0
:10176000DF91CF911F91089590E04115510511F03F
:10177000DF3F31F401968770F1CF2A0F3B1F17C06E
:10178000189FF001199FF00D1124EE5AFE4F218190
:101790002713F0CF20812613EDCF22812111EACF2C
:1017A000238134812417350740F3241B350B283C53
:1017B000310500F7209187012F7020612093870168
:1017C00026E0289FF001299FF00D1124E95AFE4FD1
:1017D00080818F708061808382E891E00E94D60AC8
:1017E000DF91CF911F910C94620B9F92AF92BF92A9
:1017F000CF92DF92EF92FF920F931F93CF93DF93DD
:10180000CDB7DEB72B970FB6F894DEBF0FBECDBFB6
:101810008C0185E0F801DE01179601900D928A9502
:10182000E1F7D8014C9111965C9111971296EC90CA
:1018300012978091850190918601009709F46BC100
:101840002091820130918301632F62236F3F09F45D
:1018500062C11396CD90DC9090908401992009F498
:10186000F8C0C816D90608F43FC0F601E81BF90B0A
:10187000CF01FF24F394883C910508F0F12C82E815
:10188000A82E81E0B82E80918701982F907FFF20AD
:1018900009F4B7C0911180C0FE2C35132AC024135F
:1018A00028C0E11026C08F708061809387010E945C
:1018B000830BC5010E94D60A80918701D801159635
:1018C0008C938F2D2B960FB6F894DEBF0FBECDBF35
:1018D000DF91CF911F910F91FF90EF90DF90CF900C
:1018E000BF90AF909F900895809590958C0D9D1D11
:1018F000C0CFCD2829F0842F85238F3F09F019C14F
:1019000080E0B82FB170DB2EE091500120915101A1
:1019100036E080FD1CC0EE20A1F28091870181603D
:1019200080938701F12CCDCF8E2F90E03E9FF00168
:101930001124EE5AFE4F6181651306C06081641365
:1019400003C062816E11E7CFFC013196E770E213AC
:10195000EBCF4F8358878F8198850E94DA10292F0B
:1019600022952F70903260F0225F2F70223078F431
:101970009F7051F0F8019581907F31F4D12C0AC00D
:101980009F7011F08823D1F3805E8830B8F3C801CE
:101990000E94D60AFD2C95CF351306C0241304C02F
:1019A000D801EE2009F47BC04F8358878F8198853A
:1019B0000E94180B882309F4B8C0EE2009F4B5C0C2
:1019C00080918701803270F02091820130918301F3
:1019D0003A8329831B82DD82CC828E83CE010196DD
:1019E0000E94D60A86E0F801A2E8B1E001900D92CB
:1019F0008A95E1F70E94910B0E94830BFF24F394D8
:101A000060CF911113C07C2DDB86CA866E2D8B852D
:101A10000E94430B82E891E00E94D60A86E0F5011D
:101A200011928A95E9F70E94830B4BCF3513BCCFF7
:101A30002413BACFE110B8CFD80115968C93C80102
:101A40000E94D60A86E0F50111928A95E9F7F92CF1
:101A500038CFC816D90688F1B601681B790BCB01BF
:101A6000F12C883C910508F047C0FE2CEE2009F4CB
:101A70005CC0351330C024132EC08091870180FDD7
:101A800021C0982F907FF1F0D80115968C9315976F
:101A9000903F39F0982F907F905F8F70892B15962B
:101AA0008C93C8010E94D60A86E0F801A2E8B1E052
:101AB00001900D928A95E1F7B6CF809590958C0DA7
:101AC0009D1DCECF86E0F801A2E8B1E001900D9215
:101AD0008A95E1F7F6CE4F8358878F8198850E94CB
:101AE000180B81117FCF80918701816080938701DE
:101AF000C8010E94D60AE5CE7C2DDB86CA866E2DF3
:101B00008B850E94430B86E0E2E8F1E0DF011D9245
:101B10008A95E9F788CFEE2041F04F8358878F816F
:101B200098850E94180B81115DCFC8010E94D60ACA
:101B300065CF81E08E25E5CE1F93CF93DF93CDB7A0
:101B4000DEB72C970FB6F894DEBF0FBECDBF4F8324
:101B5000588769877A878B879C87CE0107960E9472
:101B6000F50B882369F08A859B85892B39F04F8195
:101B70005885842F85238F3F09F071C016E05FC020
:101B800086E0FE013796DE01119601900D928A954E
:101B9000E1F78A859B85892B89F388859F81892335
:101BA0008F3F61F32091510130E0C90101968770A8
:101BB0009927409150014817190671F40E94140B9F
:101BC000109251011092500186E0E2E8F1E0DF014D
:101BD0001D928A95E9F7D2CF96E0929FD001939F0C
:101BE000B00D1124AE5ABE4FFE01319601900D92F8
:101BF0009A95E1F7809351010E94620BBFCF819FBC
:101C0000C00111248E5A9E4F0E94F50B8823E9F0E3
:101C1000E09150011E9FF0011124EE5AFE4F4081C9
:101C2000518162817381848195810E94520B8091E0
:101C3000500190E001968770992780935001809120
:101C40005001909151018913DACF2C960FB6F89478
:101C5000DEBF0FBECDBFDF91CF911F910895698583
:101C60007A858B859C850E94520B88CFEF92FF92DC
:101C70000F931F93CF93DF938C01892B89F0F12C65
:101C8000EE24E394E8012196F8018491843709F465
:101C900057C0A0F4823009F43EC048F48130D1F03E
:101CA000DF91CF911F910F91FF90EF9008959CEFDE
:101CB000980F9037A8F70E944E070AC0853709F49D
:101CC0004CC09CE7980F903758F78F770E942A08EE
:101CD0008E0116C00E5F1F4FFE01849190E2980F97
:101CE000983060F48770FE2D01C0FF0F8A95EAF7E7
:101CF0008F2F0E94E3110E940A1202C00E944E0719
:101D00008F2D815008F4BECFEFE9FFE03197F1F756
:101D100000C00000F6CF0E5F1F4FFE01849190E2DD
:101D2000980F983050F48770FE2D01C0FF0F8A95F0
:101D3000EAF78F2F0E94E911DECF0E942A08E0CF38
:101D40000E5F1F4FFE01C491C150D0F28FE99FE09A
:101D50000197F1F700C00000F7CF0E5F1F4FFE01A3
:101D6000F490CECF08956093910170939201809387
:101D70009301909394010C94000BCF93DF9300D0C8
:101D800000D0CDB7DEB769837A838B839C83809143
:101D9000910190919201A0919301B09194012981B8
:101DA0003A814B815C81822B932BA42BB52B8093A2
:101DB000910190939201A0939301B09394010F909D
:101DC0000F900F900F90DF91CF910C94000BCF9359
:101DD000DF9300D000D0CDB7DEB769837A838B83E1
:101DE0009C838091910190919201A0919301B09177
:101DF000940129813A814B815C8182239323A4231E
:101E0000B5238093910190939201A0939301B09395
:101E100094010F900F900F900F90DF91CF910C9441
:101E2000000BCF93DF9300D000D0CDB7DEB769832E
:101E30007A838B839C838091910190919201A091F0
:101E40009301B091940129813A814B815C81822771
:101E50009327A427B5278093910190939201A09393
:101E60009301B09394010F900F900F900F90DF911A
:101E7000CF910C94000B10928D0110928E01109254
:101E80008F01109290010C94000B41E050E060E053
:101E900070E004C0440F551F661F771F8A95D2F764
:101EA00040938D0150938E0160938F017093900148
:101EB0000C94000B282F81E090E0A0E0B0E004C07B
:101EC000880F991FAA1FBB1F2A95D2F740918D0139
:101ED00050918E0160918F0170919001842B952B10
:101EE000A62BB72B80938D0190938E01A0938F0129
:101EF000B09390010C94000B41E050E060E070E082
:101F000004C0440F551F661F771F8A95D2F740956E
:101F100050956095709580918D0190918E01A09162
:101F20008F01B091900184239523A623B72380933A
:101F30008D0190938E01A0938F01B09390010C942A
:101F4000000B282F81E090E0A0E0B0E004C0880FF3
:101F5000991FAA1FBB1F2A95D2F740918D0150915E
:101F60008E0160918F017091900184279527A6279B
:101F7000B72780938D0190938E01A0938F01B0932A
:101F800090010C94000BCF93DF9300D000D0CDB71D
:101F9000DEB769837A838B839C8380918D019091D6
:101FA0008E01A0918F01B091900129813A814B81DE
:101FB0005C81822B932BA42BB52B80938D01909366
:101FC0008E01A0938F01B09390010F900F900F900E
:101FD0000F90DF91CF910C94000BCF93DF9300D043
:101FE00000D0CDB7DEB769837A838B839C838091E1
:101FF0008D0190918E01A0918F01B0919001298166
:102000003A814B815C8182239323A423B52380935F
:102010008D0190938E01A0938F01B09390010F904A
:102020000F900F900F90DF91CF910C94000BCF93F6
:10203000DF9300D000D0CDB7DEB769837A838B837E
:102040009C8380918D0190918E01A0918F01B09120
:10205000900129813A814B815C8182279327A427B3
:10206000B52780938D0190938E01A0938F01B0933B
:1020700090010F900F900F900F90DF91CF910C94E3
:10208000000B0895990F990F990FE92FE80F8770AA
:1020900041E001C0440F8A95EAF7E695E695E6959A
:1020A00085E0E89FF0011124E857FE4F30E020E082
:1020B00070E05191DF011197CB01022E02C096957D
:1020C00087950A94E2F78170819585278423852777
:1020D0008C932F5F3F4F2530310559F70895E92F35
:1020E000EE0FEE0FEE0FE80F982F9770E695E6953E
:1020F000E69585E0E89FF0011124E857FE4F50E097
:1021000040E080E0219130E0092E02C0369527950D
:102110000A94E2F721703327042E01C0220F0A949B
:10212000EAF7822B4F5F5F4F4530510559F708950D
:10213000BF92CF92DF92EF92FF920F931F93CF93B4
:10214000DF938C01C0908D01D0908E01E0908F01C3
:10215000F09090018091910190919201A091930152
:10216000B0919401C82AD92AEA2AFB2ACFE1D0E00B
:10217000BC2ED701C6010C2E04C0B695A795979525
:1021800087950A94D2F780FD0EC0219788F7B12C6D
:102190008B2DDF91CF911F910F91FF90EF90DF90EA
:1021A000CF90BF900895B8018C2F0E9461030197D2
:1021B00061F3EECFCF93DF93D82FC92F0E949810F1
:1021C0006D2F7C2FDF91CF910C9461031F93CF93E0
:1021D000DF93162FD72F90914F01992339F0862F37
:1021E000972FDF91CF911F910C94DA10882391F0F3
:1021F000862F972F0E949810C82F682F812F9D2F10
:102200000E944210612F7D2F8C2FDF91CF911F9163
:102210000C946103862F972F0E946F10C82FF2CF66
:102220008091950185958595859508958091950175
:102230008770089598E0899F90011124622B609324
:1022400095010C945A0F9091950180958923809364
:102250009501282F277061F4282F082E000C330BCE
:102260009217130629F08595859585950C947C0F1A
:10227000089590919501977081E009F480E00895A8
:10228000909112019923E1F09091EB0197FF18C012
:10229000E82FE695E695E695EF3139F120910001BA
:1022A00030910101E20FF32FF11D877021E030E042
:1022B00001C0220F8A95EAF78181822B81830895DC
:1022C0002091000130910101F90132969FEF40E029
:1022D0005191851751F09F3F19F4511101C0942F6E
:1022E0004F5F4E31A9F79F3F09F40895290F311D23
:1022F00097FD3A95F90182830895909112019923EF
:1023000001F19091EB0197FF1CC0E82FE695E6954F
:10231000E695EF3139F12091000130910101E20F92
:10232000F32FF11D877021E030E0A90102C0440FB6
:10233000551F8A95E2F7CA0180959181892381838F
:1023400008952091000130910101F9013296205E3B
:102350003F4F9191891303C0DF0111971C92E2173F
:10236000F307B9F7089581E090E0E0910001F09162
:102370000101E80FF91F1082019680329105A9F73B
:1023800008959091B901982B9093B9010895982FD1
:1023900090958091B90189238093B9010895109295
:1023A000B90108959091B801982B9093B8010895C0
:1023B000982F90958091B80189238093B801089552
:1023C0001092B80108959091B701982B9093B7019E
:1023D0000895982F90958091B70189238093B70134
:1023E00008951092B7010895809396010895109270
:1023F000960108952091000130910101F901319673
:10240000205E3F4F80E0919191118F5FE217F307BB
:10241000D1F70895E0910001F09101018091B90197
:102420008083E0910001F091010180819091B801D9
:10243000892B8083E0910001F091010180819091CE
:10244000B701892B808390919601992361F0E091E7
:102450000001F09101018081892B80830E94FA1193
:1024600081111092960180910001909101010C94CC
:1024700053066DEE7EEF90E080E00E949C1F60E0CE
:1024800082E090E00E948A1F60E083E090E00E947A
:102490008A1F60E084E090E00E948A1F60E085E08F
:1024A00090E00C948A1F90E080E00E94841F9C01C1
:1024B00081E02D3E3E4F09F080E0089582E090E0FB
:1024C0000C947C1F682F82E090E00C948A1F83E0BC
:1024D00090E00C947C1F682F83E090E00C948A1F9E
:1024E00084E090E00C947C1F682F84E090E00C94D2
:1024F0008A1F8091F101843039F11092BB0188E18B
:1025000090E020E40FB6F894A895809360000FBE89
:102510002093600080E00E94430383B7817F846042
:1025200083BF83B7816083BF7894889583B78E7F9C
:1025300083BF0FB6F894A89580916000886180935E
:102540006000109260000FBE0895089508950E94E3
:10255000A5120E94CF050E94A61280E00E943B06B1
:10256000982F81E0911101C080E008950E94140B22
:102570000E9447060C9443031F921FB61F9211241A
:102580008F939F93AF93BF938091BB01811113C031
:102590008091E7019091E801A091E901B091EA01F1
:1025A0004196A11DB11D8093E7019093E801A0938E
:1025B000E901B093EA01BF91AF919F918F911F9074
:1025C0001FBE1F90189582E084BD93E095BD9AEFE1
:1025D00097BD80936E0008952FB7F8948091E7011E
:1025E0009091E801A091E901B091EA012FBF08950F
:1025F000CF92DF92EF92FF929C014FB7F8948091B7
:10260000E7019091E801A091E901B091EA014FBF83
:102610006C017D01EE24FF24A90170E060E0C41686
:10262000D506E606F70638F0821B930BFF90EF9075
:10263000DF90CF9008950197F7CF1F921FB61F929A
:1026400011248F939F93AF93BF938091E701909153
:10265000E801A091E901B091EA010196A11DB11D27
:102660008093E7019093E801A093E901B093EA0118
:10267000BF91AF919F918F911F901FBE1F90189592
:102680000E94251BF8942FEF87EA91E621508040A5
:102690009040E1F700C0000087E090EBDC01809300
:1026A000FA019093FB01A093FC01B093FD0188E136
:1026B0009CE00FB6F894A895809360000FBE9093AD
:1026C0006000FFCFEF92FF920F931F93CF93DF93A2
:1026D000082F80E00E943B06D0E0C0E0E82EF12CFD
:1026E00010E0C7010C2E02C0959587950A94E2F779
:1026F00080FF10C06C2F70E080E00E944603081736
:10270000190741F481E0DF91CF911F910F91FF9064
:10271000EF9008952196C830D10519F780E0F3CFE6
:10272000CF93C82F8CE20E946213882321F08C2F54
:10273000CF910C94621380E0CF910895CF93DF93F3
:1027400000D000D0CDB7DEB70E945312811102C075
:102750000E94391295E6998308C00E94CF058FE345
:102760009CE90197F1F700C00000A981A150A9835D
:10277000A111F3CF89E20E949013811110C18AE266
:102780000E94901381110E94391285E00E949013DB
:1027900081110E9440130E945E128093BA0187E06B
:1027A0000E949013882371F08BE10E94901388237C
:1027B00009F4D1C09091BA01892F8D7F91FF826079
:1027C0008093BA018091BA010E9462120E94701235
:1027D00090E09093EC018093EB0180EE0E949013C7
:1027E000882341F09091EB01892F8E7F90FF8160CB
:1027F0008093EB0189E30E949013882341F090912C
:10280000EB01892F8D7F91FF82608093EB0182EE37
:102810000E949013882341F09091EB01892F8B7FC8
:1028200092FF84608093EB0186EE0E9490138823D0
:1028300041F09091EB01892F877F93FF886080930F
:10284000EB0183EE0E949013882341F09091EB01FD
:10285000892F8F7E94FF80618093EB0185E30E9436
:102860009013882341F09091EB01892F8F7D95FF84
:1028700080628093EB0181E30E949013882341F0F2
:102880009091EB01892F8F7B96FF80648093EB0101
:1028900081E10E949013882341F09091EB01892FF0
:1028A00097FB87F980588093EB018091EB010E94A0
:1028B000741287E20E94901389838EE10E94901324
:1028C000882319F0B981B260B9838FE10E94901317
:1028D000882319F029812460298380E20E949013C3
:1028E000882319F039813860398381E20E9490137E
:1028F000882319F049814061498382E20E94901344
:10290000882319F059815062598383E20E94901301
:10291000882319F089818064898384E20E9490135E
:102920008823B1F199819068998389810E946B1203
:102930003981232F30E050E040E029833A834B83F4
:102940005C83CA01B9010F900F900F900F90DF9137
:10295000CF910C94B30E8EE00E949013882339F02F
:102960009091BA01892F8B7F92FF846029CF80E1FB
:102970000E9490139091BA01882329F0892F877FB4
:1029800093FF88601DCF892F8E7F90FF816018CFC5
:10299000A981A111CACF0E946712282FCBCF0F9017
:1029A0000F900F900F90DF91CF9108958091BE010D
:1029B00080FF12C06091050185E0689FB00111247D
:1029C000759567957595679560387105A8F56115DA
:1029D0007105A1F1862F089581FF09C0609105015D
:1029E00085E0689FB001112475956795EDCF6091E2
:1029F000050182FD0AC08091BF018823D1F090912A
:102A0000040160910501891728F085E0689FB001F5
:102A10001124DACF869FB001112485E0869F9001B2
:102A2000879F300D1124692F70E0C9010E944E1F4D
:102A3000CBCF65E070E0CECF8FE7089581E00895B9
:102A40008091BE0180FF0CC06091030170E075951C
:102A50006795759567956115710549F1862F0895FC
:102A600081FF06C06091030170E075956795F3CF13
:102A70006091030182FD0BC09091BF019923A1F0E9
:102A80006091020180910301961738F0682F70E081
:102A90006038710500F38FE70895899FC001112404
:102AA00070E00E944E1FF4CF61E070E0D7CF81E06C
:102AB0000895803F31F40E94D61481958093C2011D
:102AC0000895813F19F40E94D614F8CF823F31F463
:102AD0000E94D61481958093C1010895833F19F413
:102AE0000E94D614F8CF893F29F40E9420158093C4
:102AF000C30108958A3F21F40E9420158195F7CFE4
:102B00008B3F31F40E94201581958093C401089574
:102B10008C3F19F40E942015F8CF843F31F4809146
:102B2000C00181608093C0010895853F21F48091A8
:102B3000C0018260F7CF863F21F48091C00184609C
:102B4000F1CF873F21F48091C0018860EBCF883FAF
:102B500021F48091C0018061E5CF8D3F31F48091F7
:102B6000BE0181608093BE0108958E3F21F4809163
:102B7000BE018260F7CF8F3FB9F78091BE018460BC
:102B8000F1CF9091C101803F41F48091C20187FD56
:102B90001092C201992371F00895813F29F4809128
:102BA000C2011816ACF3F6CF823F81F497FFF2CF43
:102BB0001092C1018091C2019091C301892B909123
:102BC000C401892B49F71092BF010895833F19F47E
:102BD000191674F3DFCF893F39F48091C3011816B9
:102BE000CCF61092C301D6CF8A3F29F48091C3015D
:102BF00087FFD0CFF6CF8B3F39F48091C40187FF98
:102C0000C9CF1092C401C6CF8C3F29F48091C40172
:102C10001816BCF3BFCF843F31F48091C0018E7F82
:102C20008093C001B7CF853F21F48091C0018D7F93
:102C3000F7CF863F21F48091C0018B7FF1CF873F92
:102C400021F48091C001877FEBCF883F21F48091F0
:102C5000C0018F7EE5CF8D3F31F48091BE018E7F24
:102C60008093BE0197CF8E3F21F48091BE018D7F6E
:102C7000F7CF8F3F09F08ECF8091BE018B7FF0CFD1
:102C800080EC91E00E945E060E94EC129093BD01E0
:102C90008093BC0108951F93CF93DF9300D000D0A1
:102CA00000D0CDB7DEB78091BC019091BD010E94EC
:102CB000F812AC018091BF012091060130E0811132
:102CC00006C0209107019AE0299F90011124421724
:102CD000530788F02091C101A091C201A9831091EE
:102CE000C301B091C401BE8321110FC09A2F912B53
:102CF0009B2B09F0B2C026960FB6F894DEBF0FBE2C
:102D0000CDBFDF91CF911F9108958F3F19F08F5F55
:102D10008093BF01121624F40E94D6148093C1013F
:102D20008091C10187FF05C00E94D61481958093D0
:102D3000C1012981121624F40E94D6148093C20185
:102D40008091C20187FF05C00E94D61481958093AF
:102D5000C2018091C101882309F455C03091C2019C
:102D60003D83332309F44FC0282F880F330B440BC6
:102D7000550B29833A834B835C83CA01B9010E94B6
:102D8000551E23E333E343E35FE369837A838B8355
:102D90009C8369817A818B819C810E94B91E6983A1
:102DA0007A838B839C8369817A818B819C810E9449
:102DB0001D1E6093C1018D81082E000C990BAA0B7A
:102DC000BB0B89839A83AB83BC83BC01CD010E947A
:102DD000551E23E333E343E35FE369837A838B8305
:102DE0009C8369817A818B819C810E94B91E698351
:102DF0007A838B839C8369817A818B819C810E94F9
:102E00001D1E6093C201111624F40E9420158093A8
:102E1000C3018091C30187FF05C00E9420158195E1
:102E20008093C3019E81191624F40E94201580937B
:102E3000C4018091C40187FF05C00E9420158195BF
:102E40008093C40126960FB6F894DEBF0FBECDBFA7
:102E5000DF91CF911F910C9440168F3F09F057CF0F
:102E600068CF85E0E0ECF1E0DF011D928A95E9F79B
:102E70001092BF011092BE0108958091E50108955E
:102E8000CF93DF9300D00F92CDB7DEB72091F10141
:102E9000243019F523E029838A839B832093E9005A
:102EA0008FEF9091E800815095FD06C095ED9A95C1
:102EB000F1F700008111F5CF8091E80085FF0DC08A
:102EC00050E040E063E070E0CE0101960E949D1961
:102ED0008091E8008E778093E8000F900F900F901C
:102EE000DF91CF910895CF93DF9300D00F92CDB7AC
:102EF000DEB79C018091F101843031F582E0898355
:102F0000205831093B832A8383E08093E9008FEFC7
:102F10009091E800815095FD06C095ED9A95F1F7E6
:102F200000008111F5CF8091E80085FF0DC050E0D1
:102F300040E063E070E0CE0101960E949D1980910F
:102F4000E8008E778093E8000F900F900F90DF914C
:102F5000CF9108952091F1012430F1F422E02093E3
:102F6000E9002FEF3091E800215035FD06C035ED26
:102F70003A95F1F700002111F5CF2091E80025FFE7
:102F80000BC050E040E065E070E00E949D19809128
:102F9000E8008E778093E8000895CF93DF93D82FD1
:102FA000C92F8091F1018430F1F49091120199239D
:102FB000E9F09091EB0197FF19C08093E9008FEF42
:102FC0009091E800815095FD06C095E19A95F1F742
:102FD00000008111F5CF8091E80050E040E060E210
:102FE00070E085FD1AC0DF91CF91089581E0809354
:102FF000E9008FEF9091E800815095FD06C095EDB6
:103000009A95F1F700008111F5CF8091E80085FFD6
:10301000EACF50E040E068E070E08D2F9C2F0E94E6
:103020009D198091E8008E778093E80080E2ED2F73
:10303000FC2FA5ECB1E001900D928A95E1F7D3CF7A
:103040008091F001811109C00E94251B0E94821B02
:103050008091E20084608093E20008951092F00174
:103060000895089508950C94B61242E061EC81E051
:103070000E94A11A42E061EC82E00E94A11A42E0A3
:1030800061EC83E00E94A11A42E261EC84E00C94BE
:10309000A11A8091F301893089F148F4823009F452
:1030A00094C0833009F44FC0813041F008958A30D4
:1030B00009F47BC08B3009F461C008958091F2015E
:1030C000813A09F03FC08091E800877F8093E80053
:1030D0008091F6019091F701892B61F460E285EC13
:1030E00091E070E00E94EC198091E8008B7780936A
:1030F000E800089560E090E080E0F3CF8091F20175
:10310000813201F58091F6019091F701009711F05D
:103110000397C1F48091E800877F8093E800809155
:10312000E80082FF0BC08091F1008093E50180915F
:10313000E8008B778093E8000C94D51A8091F10118
:103140008111EDCF08958091F201813AD9F78091F4
:10315000F6019091F701892BA9F78091E800877F0C
:103160008093E8008091E80080FFFCCF80911201FD
:103170008093F1008091E8008E77DCCF8091F2019E
:10318000813201F78091F6019091F701892BD1F6F8
:103190008091E800877F8093E8000E94D51A809193
:1031A000F401809312010C94140B8091F20181328E
:1031B00049F68091E800877F8093E8000E94D51A45
:1031C0008091F5018093E60108958091F201813AA2
:1031D00009F0B8CF8091E800877F8093E800809164
:1031E000E80080FFFCCF8091E601C2CF84B7877FE3
:1031F00084BF0FB6F894A895809160008861809391
:103200006000109260000FBE80E880936100109211
:1032100061000E9496060E94251B0E94821B8091DD
:10322000E20084608093E20078940E94021E0E9473
:10323000980688E091E00E9442068091F101853075
:1032400019F00E949E06F9CF0E9479128091EF0139
:10325000882399F30E94A712882379F30E94871983
:10326000ECCF9C01DA01892F992783309105C1F0B9
:1032700068F48130910509F445C0029761F48DE648
:1032800090E02CED31E02D933C930895813291052F
:10329000E1F0829739F190E080E030E020E0F3CF78
:1032A000C9019927213059F08230910559F0E8ED94
:1032B000F1E0892B81F7849190E09F01E4CFE0EC6D
:1032C000F1E0F9CFECEAF1E0F6CF643020F7E62F39
:1032D000F0E0EE0FFF1FE95DFE4F2081318189E0B4
:1032E00090E0D1CF6430B8F670E0FB01EE0FFF1F25
:1032F000E15EFE4F20813181655E7E4FFB01808162
:1033000090E0C1CF82E190E029E432E0BCCF80E1DF
:1033100089BD82E189BD09B400FEFDCF8091D8004E
:103320008F7D8093D8008091E00082608093E000E0
:103330008091E00081FDFCCF0895AF92BF92CF92C3
:10334000DF92FF920F931F93CF93DF936C01EB01FA
:103350008A010E94F41AF82E811123C0011511056B
:1033600039F0F80180819181C81BD90BC80ED91E94
:10337000B12CA12C2097A9F08091E80085FD22C0F6
:103380008091E8008E778093E80001151105A1F087
:10339000F80180819181A80EB91EB182A08285E0DA
:1033A000F82E8F2DDF91CF911F910F91FF90DF901D
:1033B000CF90BF90AF9008950E94F41A8823D1F265
:1033C000F82EEFCFF60181916F018093F1002197E4
:1033D000FFEFAF1ABF0ACECFFC01CB012091F8015D
:1033E0003091F9012617370790F0009729F42091C2
:1033F000E8002E772093E80040E0009751F4411157
:1034000008C08091E80082FF31C080E00895C901C2
:10341000F3CF2091F1012223A9F12530A9F12091C8
:10342000E80023FD2DC02091E80022FDEACF209185
:10343000E80020FFE2CF3091F3002091F2000097E6
:1034400019F02830310558F041E02830310509F0F5
:1034500040E02091E8002E772093E800CECF419104
:103460004093F10001972F5F3F4FE9CF8091F10129
:10347000882341F0853041F08091E80083FFC1CF7F
:1034800081E0089582E0089583E00895FC01CB0176
:103490002091F8013091F9012617370790F0009735
:1034A00029F42091E8002E772093E80040E000976F
:1034B00051F4411108C08091E80082FF32C080E0E1
:1034C0000895C901F3CF2091F1012223B1F12530F4
:1034D000B1F12091E80023FD2EC02091E80022FDEB
:1034E000EACF2091E80020FFE2CF3091F300209155
:1034F000F200009719F02830310558F041E02830EB
:10350000310509F040E02091E8002E772093E80093
:10351000CECF44914093F100319601972F5F3F4FFA
:10352000E8CF8091F101882341F0853041F080910E
:10353000E80083FFC0CF81E0089582E0089583E032
:103540000895982F973028F08F708093E90081E0DC
:1035500008959093E900242F762F50E0981731F0CA
:103560007091EC002091ED005091F00021FD02C01F
:103570009F5FE8CF3091EB003E7F3093EB003091BE
:10358000ED003D7F3093ED003091EB0031603093E2
:10359000EB007093EC002093ED005093F00020912D
:1035A000EE0027FDE5CF80E008958091F20187FFCE
:1035B00013C08091E80082FF06C08091E8008B77FD
:1035C0008093E80004C08091F1018111F2CF089549
:1035D0008091F1018823D9F38091E80080FFF8CF32
:1035E0008091E8008E77ECCF2091E4003091E500E7
:1035F00095E6A9012091EC00822F817020FF06C082
:103600008091E80080FF06C080E008952091E800E6
:1036100022FD1AC08091F101882389F0853089F05C
:103620008091EB0085FD0FC02091E4003091E50012
:1036300042175307F9F29150E1F684E0089582E0D1
:10364000089583E0089581E008950E94931B0E94ED
:103650009B1BE0EEF0E0808181608083E8EDF0E08C
:1036600080818F77808319BCA7EDB0E08C918E7F2D
:103670008C9380818F7E80831092F00108950F9348
:103680001F93CF93DF930E94931B0E949B1BC8ED57
:10369000D0E088818F77888388818068888388815B
:1036A0008F7D888319BC1092F1011092ED01109268
:1036B000EF011092EE0100EE10E0F80180818B7FA7
:1036C000808388818160888342E060E080E00E949E
:1036D000A11AE1EEF0E080818E7F8083E2EEF0E0DF
:1036E000808181608083808188608083F80180810F
:1036F0008E7F8083888180618883DF91CF911F9145
:103700000F910895E8EDF0E080818F7E8083E7EDF2
:10371000F0E080818160808384E082BF81E08093DB
:10372000F0010C943F1BE8EDF0E080818E7F8083F8
:103730001092E20008951092DA001092E1000895CC
:103740001F920F920FB60F9211242F933F934F9316
:103750005F936F937F938F939F93AF93BF93EF93F9
:10376000FF938091E10082FF0BC08091E20082FF15
:1037700007C08091E1008B7F8093E1000E94011ED1
:103780008091DA0080FF19C08091D80080FF15C0B9
:103790008091DA008E7F8093DA008091D90080FFDB
:1037A00094C080E189BD82E189BD09B400FEFDCFEE
:1037B00081E08093F1010E9420188091E10080FF58
:1037C00019C08091E20080FF15C08091E2008E7FD9
:1037D0008093E2008091E20080618093E20080911A
:1037E000D80080628093D80019BC85E08093F101F5
:1037F0000E9432188091E10084FF29C08091E2008C
:1038000084FF25C080E189BD82E189BD09B400FE45
:10381000FDCF8091D8008F7D8093D8008091E1000A
:103820008F7E8093E1008091E2008F7E8093E200A2
:103830008091E20081608093E2008091ED01882315
:1038400009F449C084E08093F1010E94331880910B
:10385000E10083FF29C08091E20083FF25C08091B1
:10386000E100877F8093E10082E08093F101109274
:10387000ED018091E1008E7F8093E1008091E20074
:103880008E7F8093E2008091E20080618093E2006D
:1038900042E060E080E00E94A11A8091F000886020
:1038A0008093F0000E943118FF91EF91BF91AF918A
:1038B0009F918F917F916F915F914F913F912F9148
:1038C0000F900FBE0F901F90189519BC1092F10128
:1038D0000E942E1872CF8091E30087FD02C081E024
:1038E000B2CF83E0B0CF1F920F920FB60F92112488
:1038F0002F933F934F935F936F937F938F939F93F8
:10390000AF93BF93CF93DF93EF93FF93D091E900F1
:10391000DF708091EC00C82FC17080FDC0E810926C
:10392000E9008091F000877F8093F00078940E94F6
:10393000B71C1092E9008091F00088608093F0003D
:10394000CD2BCF70C093E900FF91EF91DF91CF9124
:10395000BF91AF919F918F917F916F915F914F91A7
:103960003F912F910F900FBE0F901F9018951F93AE
:10397000CF93DF93CDB7DEB7AA970FB6F894DEBF2B
:103980000FBECDBF82EF91E0FC0101962091F100C6
:10399000208321E08A3F9207B9F70E94491880915D
:1039A000E80083FF16C18091F2019091F3019A30F3
:1039B00008F00FC1E92FF0E0EA52F04E0C94621FBC
:1039C000803881F0823809F004C18091F6018F704F
:1039D0008093E9008091EB0085FB882780F91092A5
:1039E000E90006C08091EE019091EF019111826093
:1039F0009091E800977F9093E8008093F1001092F7
:103A0000F1008091E8008E77E0C0882309F4CEC0F1
:103A1000823009F0DEC08091F4018111D1C0809123
:103A2000F6018F7009F4D5C08093E9002091EB0076
:103A300020FFC6C0933031F48091EB008062809308
:103A4000EB00BEC09091EB0090619093EB0021E001
:103A500030E001C0220F8A95EAF72093EA00109225
:103A6000EA008091EB008860EACF8111B2C010912A
:103A7000F4011F778091E3008078812B8093E3002D
:103A80008091E800877F8093E8000E94D51A80919A
:103A9000E80080FFFCCF8091E30080688093E30022
:103AA00082E0111183E08093F10193C0805882304D
:103AB00008F08FC08091F4019091F5018C3D23E0D6
:103AC0009207A1F583E08A838AE289834FB7F8944D
:103AD000DE01139620E03EE051E2E32FF0E0509348
:103AE0005700E49120FF03C0E295EF703F5FEF7055
:103AF0008E2F90E0EA30C0F0C7968D939D932F5F94
:103B0000243159F74FBF8091E800877F8093E80008
:103B10006AE270E0CE0101960E94EC198091E80003
:103B20008B778093E80055C0C096E7CFAE014F5F1A
:103B30005F4F6091F6010E943119BC01892B09F495
:103B400048C08091E800877F8093E80089819A814E
:103B50000E94461AE3CF8038E1F58091E800877F24
:103B60008093E8008091ED018093F1004ACF8111AC
:103B700030C09091F401923060F58091E800877F29
:103B80008093E8009093ED010E94D51A8091ED0199
:103B9000882311F084E005C08091E30087FDFACF0F
:103BA00081E08093F1010E94351813C08091F401E7
:103BB000813079F481E0933009F080E08093EF0167
:103BC0001092E9008091E800877F8093E8000E94CE
:103BD000D51A8091E80083FF0AC08091E800877FB2
:103BE0008093E8008091EB0080628093EB00AA96BE
:103BF0000FB6F894DEBF0FBECDBFDF91CF911F91FE
:103C000008950895CF938091F1018823A1F0C09188
:103C1000E900CF709091EC00892F817090FD80E8D1
:103C2000C82B1092E9008091E80083FD0E94B71C28
:103C3000CF70C093E900CF9108950E94241E68942C
:103C4000B1110C94B31E08950E94981E88F09F57DE
:103C500098F0B92F9927B751B0F0E1F0660F771FB0
:103C6000881F991F1AF0BA95C9F714C0B13091F0A6
:103C70000E94B21EB1E008950C94B21E672F782FF7
:103C80008827B85F39F0B93FCCF38695779567956B
:103C9000B395D9F73EF490958095709561957F4FD7
:103CA0008F4F9F4F0895E89409C097FB3EF490957D
:103CB0008095709561957F4F8F4F9F4F9923A9F005
:103CC000F92F96E9BB279395F69587957795679594
:103CD000B795F111F8CFFAF4BB0F11F460FF1BC0D8
:103CE0006F5F7F4F8F4F9F4F16C0882311F096E96B
:103CF00011C0772321F09EE8872F762F05C0662319
:103D000071F096E8862F70E060E02AF09A95660FD1
:103D1000771F881FDAF7880F9695879597F908958A
:103D200057FD9058440F551F59F05F3F71F047956C
:103D3000880F97FB991F61F09F3F79F08795089551
:103D4000121613061406551FF2CF4695F1DF08C070
:103D5000161617061806991FF1CF8695710561058D
:103D600008940895E894BB2766277727CB0197F935
:103D700008950E94CC1E0C943D1F0E942F1F38F006
:103D80000E94361F20F0952311F00C94261F0C94EE
:103D90002C1F11240C94B31E0E94901E70F3959F4B
:103DA000C1F3950F50E0551F629FF001729FBB2732
:103DB000F00DB11D639FAA27F00DB11DAA1F649FCE
:103DC0006627B00DA11D661F829F2227B00DA11D81
:103DD000621F739FB00DA11D621F839FA00D611D07
:103DE000221F749F3327A00D611D231F849F600D28
:103DF000211D822F762F6A2F11249F5750409AF051
:103E0000F1F088234AF0EE0FFF1FBB1F661F771FDC
:103E1000881F91505040A9F79E3F510580F00C94A7
:103E2000261F0C94B31E5F3FE4F3983ED4F38695AF
:103E300077956795B795F795E7959F5FC1F7FE2B47
:103E4000880F911D9695879597F9089597F99F6723
:103E500080E870E060E008959FEF80EC0895002412
:103E60000A941616170618060906089500240A94DF
:103E700012161306140605060895092E0394000C65
:103E800011F4882352F0BB0F40F4BF2B11F460FFF4
:103E900004C06F5F7F4F8F4F9F4F089597FB072E92
:103EA00016F4009407D077FD09D00E94681F07FC24
:103EB00005D03EF4909581959F4F0895709561953A
:103EC0007F4F0895EE0FFF1F0590F491E02D0994A8
:103ED000AA1BBB1B51E107C0AA1FBB1FA617B70730
:103EE00010F0A61BB70B881F991F5A95A9F780954C
:103EF0009095BC01CD010895F999FECF92BD81BD89
:103F0000F89A992780B50895A8E1B0E042E050E022
:103F10000C94A41F262FF999FECF92BD81BDF89A6B
:103F2000019700B4021639F01FBA20BD0FB6F894FD
:103F3000FA9AF99A0FBE08950196272F0E948B1FB7
:103F40000C948A1FDC01CB01FC01F999FECF06C05D
:103F5000F2BDE1BDF89A319600B40D924150504047
:103F6000B8F70895F894FFCFAE02BA02BE02C202BB
:103F7000C602CA02CE02D202D602DA02DE02E20291
:103F8000E602EA02EE02F202F602FA02BF08BF08F7
:103F9000170917095B097709EF08EF088209EF088D
:103FA0004A0A4A0AB50AEF08EF08BE0AE01C051DD6
:103FB000E91D051DE91D351D561DE91DAB1DB71D6C
:103FC00097012808140A321E3D17CD17AA17731738
:103FD0004017019190946697C63435404D36391795
:103FE00003CA0294025B02EE0107022002390200BA
:00000001FF
